{
  "_format": "hh-sol-artifact-1",
  "contractName": "Escrow",
  "sourceName": "contracts/Escrow.sol",
  "abi": [
    {
      "inputs": [
        {
          "internalType": "address",
          "name": "ERC20Address",
          "type": "address"
        },
        {
          "internalType": "address",
          "name": "escrowAdmin",
          "type": "address"
        }
      ],
      "stateMutability": "nonpayable",
      "type": "constructor"
    },
    {
      "anonymous": false,
      "inputs": [
        {
          "components": [
            {
              "internalType": "bytes32",
              "name": "orderId",
              "type": "bytes32"
            },
            {
              "internalType": "bytes32",
              "name": "serviceId",
              "type": "bytes32"
            },
            {
              "internalType": "string",
              "name": "customerSubstrateAddress",
              "type": "string"
            },
            {
              "internalType": "string",
              "name": "sellerSubstrateAddress",
              "type": "string"
            },
            {
              "internalType": "string",
              "name": "dnaSampleTrackingId",
              "type": "string"
            },
            {
              "internalType": "uint256",
              "name": "testingPrice",
              "type": "uint256"
            },
            {
              "internalType": "uint256",
              "name": "qcPrice",
              "type": "uint256"
            },
            {
              "internalType": "uint256",
              "name": "amountPaid",
              "type": "uint256"
            },
            {
              "internalType": "address",
              "name": "customerAddress",
              "type": "address"
            },
            {
              "internalType": "address",
              "name": "sellerAddress",
              "type": "address"
            },
            {
              "internalType": "enum Escrow.OrderStatus",
              "name": "status",
              "type": "uint8"
            },
            {
              "internalType": "bool",
              "name": "exists",
              "type": "bool"
            }
          ],
          "indexed": false,
          "internalType": "struct Escrow.Order",
          "name": "order",
          "type": "tuple"
        }
      ],
      "name": "OrderFulfilled",
      "type": "event"
    },
    {
      "anonymous": false,
      "inputs": [
        {
          "components": [
            {
              "internalType": "bytes32",
              "name": "orderId",
              "type": "bytes32"
            },
            {
              "internalType": "bytes32",
              "name": "serviceId",
              "type": "bytes32"
            },
            {
              "internalType": "string",
              "name": "customerSubstrateAddress",
              "type": "string"
            },
            {
              "internalType": "string",
              "name": "sellerSubstrateAddress",
              "type": "string"
            },
            {
              "internalType": "string",
              "name": "dnaSampleTrackingId",
              "type": "string"
            },
            {
              "internalType": "uint256",
              "name": "testingPrice",
              "type": "uint256"
            },
            {
              "internalType": "uint256",
              "name": "qcPrice",
              "type": "uint256"
            },
            {
              "internalType": "uint256",
              "name": "amountPaid",
              "type": "uint256"
            },
            {
              "internalType": "address",
              "name": "customerAddress",
              "type": "address"
            },
            {
              "internalType": "address",
              "name": "sellerAddress",
              "type": "address"
            },
            {
              "internalType": "enum Escrow.OrderStatus",
              "name": "status",
              "type": "uint8"
            },
            {
              "internalType": "bool",
              "name": "exists",
              "type": "bool"
            }
          ],
          "indexed": false,
          "internalType": "struct Escrow.Order",
          "name": "order",
          "type": "tuple"
        }
      ],
      "name": "OrderPaid",
      "type": "event"
    },
    {
      "anonymous": false,
      "inputs": [
        {
          "components": [
            {
              "internalType": "bytes32",
              "name": "orderId",
              "type": "bytes32"
            },
            {
              "internalType": "bytes32",
              "name": "serviceId",
              "type": "bytes32"
            },
            {
              "internalType": "string",
              "name": "customerSubstrateAddress",
              "type": "string"
            },
            {
              "internalType": "string",
              "name": "sellerSubstrateAddress",
              "type": "string"
            },
            {
              "internalType": "string",
              "name": "dnaSampleTrackingId",
              "type": "string"
            },
            {
              "internalType": "uint256",
              "name": "testingPrice",
              "type": "uint256"
            },
            {
              "internalType": "uint256",
              "name": "qcPrice",
              "type": "uint256"
            },
            {
              "internalType": "uint256",
              "name": "amountPaid",
              "type": "uint256"
            },
            {
              "internalType": "address",
              "name": "customerAddress",
              "type": "address"
            },
            {
              "internalType": "address",
              "name": "sellerAddress",
              "type": "address"
            },
            {
              "internalType": "enum Escrow.OrderStatus",
              "name": "status",
              "type": "uint8"
            },
            {
              "internalType": "bool",
              "name": "exists",
              "type": "bool"
            }
          ],
          "indexed": false,
          "internalType": "struct Escrow.Order",
          "name": "order",
          "type": "tuple"
        }
      ],
      "name": "OrderPaidPartial",
      "type": "event"
    },
    {
      "anonymous": false,
      "inputs": [
        {
          "components": [
            {
              "internalType": "bytes32",
              "name": "orderId",
              "type": "bytes32"
            },
            {
              "internalType": "bytes32",
              "name": "serviceId",
              "type": "bytes32"
            },
            {
              "internalType": "string",
              "name": "customerSubstrateAddress",
              "type": "string"
            },
            {
              "internalType": "string",
              "name": "sellerSubstrateAddress",
              "type": "string"
            },
            {
              "internalType": "string",
              "name": "dnaSampleTrackingId",
              "type": "string"
            },
            {
              "internalType": "uint256",
              "name": "testingPrice",
              "type": "uint256"
            },
            {
              "internalType": "uint256",
              "name": "qcPrice",
              "type": "uint256"
            },
            {
              "internalType": "uint256",
              "name": "amountPaid",
              "type": "uint256"
            },
            {
              "internalType": "address",
              "name": "customerAddress",
              "type": "address"
            },
            {
              "internalType": "address",
              "name": "sellerAddress",
              "type": "address"
            },
            {
              "internalType": "enum Escrow.OrderStatus",
              "name": "status",
              "type": "uint8"
            },
            {
              "internalType": "bool",
              "name": "exists",
              "type": "bool"
            }
          ],
          "indexed": false,
          "internalType": "struct Escrow.Order",
          "name": "order",
          "type": "tuple"
        }
      ],
      "name": "OrderRefunded",
      "type": "event"
    },
    {
      "inputs": [],
      "name": "_escrowAdmin",
      "outputs": [
        {
          "internalType": "address",
          "name": "",
          "type": "address"
        }
      ],
      "stateMutability": "view",
      "type": "function"
    },
    {
      "inputs": [],
      "name": "_token",
      "outputs": [
        {
          "internalType": "contract IERC20",
          "name": "",
          "type": "address"
        }
      ],
      "stateMutability": "view",
      "type": "function"
    },
    {
      "inputs": [
        {
          "internalType": "bytes32",
          "name": "orderId",
          "type": "bytes32"
        }
      ],
      "name": "fulfillOrder",
      "outputs": [],
      "stateMutability": "nonpayable",
      "type": "function"
    },
    {
      "inputs": [],
      "name": "getAllOrders",
      "outputs": [
        {
          "internalType": "bytes32[]",
          "name": "",
          "type": "bytes32[]"
        }
      ],
      "stateMutability": "view",
      "type": "function"
    },
    {
      "inputs": [
        {
          "internalType": "bytes32",
          "name": "orderId",
          "type": "bytes32"
        }
      ],
      "name": "getOrderByOrderId",
      "outputs": [
        {
          "components": [
            {
              "internalType": "bytes32",
              "name": "orderId",
              "type": "bytes32"
            },
            {
              "internalType": "bytes32",
              "name": "serviceId",
              "type": "bytes32"
            },
            {
              "internalType": "string",
              "name": "customerSubstrateAddress",
              "type": "string"
            },
            {
              "internalType": "string",
              "name": "sellerSubstrateAddress",
              "type": "string"
            },
            {
              "internalType": "string",
              "name": "dnaSampleTrackingId",
              "type": "string"
            },
            {
              "internalType": "uint256",
              "name": "testingPrice",
              "type": "uint256"
            },
            {
              "internalType": "uint256",
              "name": "qcPrice",
              "type": "uint256"
            },
            {
              "internalType": "uint256",
              "name": "amountPaid",
              "type": "uint256"
            },
            {
              "internalType": "address",
              "name": "customerAddress",
              "type": "address"
            },
            {
              "internalType": "address",
              "name": "sellerAddress",
              "type": "address"
            },
            {
              "internalType": "enum Escrow.OrderStatus",
              "name": "status",
              "type": "uint8"
            },
            {
              "internalType": "bool",
              "name": "exists",
              "type": "bool"
            }
          ],
          "internalType": "struct Escrow.Order",
          "name": "",
          "type": "tuple"
        }
      ],
      "stateMutability": "view",
      "type": "function"
    },
    {
      "inputs": [],
      "name": "getOrderCount",
      "outputs": [
        {
          "internalType": "uint256",
          "name": "",
          "type": "uint256"
        }
      ],
      "stateMutability": "view",
      "type": "function"
    },
    {
      "inputs": [
        {
          "internalType": "string",
          "name": "customerSubstrateAddress",
          "type": "string"
        }
      ],
      "name": "getOrdersByCustomerSubstrateAddress",
      "outputs": [
        {
          "internalType": "bytes32[]",
          "name": "",
          "type": "bytes32[]"
        }
      ],
      "stateMutability": "view",
      "type": "function"
    },
    {
      "inputs": [
        {
          "internalType": "string",
          "name": "sellerSubstrateAddress",
          "type": "string"
        }
      ],
      "name": "getOrdersBySellerSubstrateAddress",
      "outputs": [
        {
          "internalType": "bytes32[]",
          "name": "",
          "type": "bytes32[]"
        }
      ],
      "stateMutability": "view",
      "type": "function"
    },
    {
      "inputs": [
        {
          "internalType": "bytes32",
          "name": "",
          "type": "bytes32"
        }
      ],
      "name": "orderByOrderId",
      "outputs": [
        {
          "internalType": "bytes32",
          "name": "orderId",
          "type": "bytes32"
        },
        {
          "internalType": "bytes32",
          "name": "serviceId",
          "type": "bytes32"
        },
        {
          "internalType": "string",
          "name": "customerSubstrateAddress",
          "type": "string"
        },
        {
          "internalType": "string",
          "name": "sellerSubstrateAddress",
          "type": "string"
        },
        {
          "internalType": "string",
          "name": "dnaSampleTrackingId",
          "type": "string"
        },
        {
          "internalType": "uint256",
          "name": "testingPrice",
          "type": "uint256"
        },
        {
          "internalType": "uint256",
          "name": "qcPrice",
          "type": "uint256"
        },
        {
          "internalType": "uint256",
          "name": "amountPaid",
          "type": "uint256"
        },
        {
          "internalType": "address",
          "name": "customerAddress",
          "type": "address"
        },
        {
          "internalType": "address",
          "name": "sellerAddress",
          "type": "address"
        },
        {
          "internalType": "enum Escrow.OrderStatus",
          "name": "status",
          "type": "uint8"
        },
        {
          "internalType": "bool",
          "name": "exists",
          "type": "bool"
        }
      ],
      "stateMutability": "view",
      "type": "function"
    },
    {
      "inputs": [
        {
          "internalType": "bytes32",
          "name": "",
          "type": "bytes32"
        },
        {
          "internalType": "uint256",
          "name": "",
          "type": "uint256"
        }
      ],
      "name": "ordersByCustomerSubstrateAddress",
      "outputs": [
        {
          "internalType": "bytes32",
          "name": "",
          "type": "bytes32"
        }
      ],
      "stateMutability": "view",
      "type": "function"
    },
    {
      "inputs": [
        {
          "internalType": "bytes32",
          "name": "",
          "type": "bytes32"
        },
        {
          "internalType": "uint256",
          "name": "",
          "type": "uint256"
        }
      ],
      "name": "ordersBySellerSubstrateAddress",
      "outputs": [
        {
          "internalType": "bytes32",
          "name": "",
          "type": "bytes32"
        }
      ],
      "stateMutability": "view",
      "type": "function"
    },
    {
      "inputs": [
        {
          "internalType": "bytes32",
          "name": "orderId",
          "type": "bytes32"
        },
        {
          "internalType": "bytes32",
          "name": "serviceId",
          "type": "bytes32"
        },
        {
          "internalType": "string",
          "name": "customerSubstrateAddress",
          "type": "string"
        },
        {
          "internalType": "string",
          "name": "sellerSubstrateAddress",
          "type": "string"
        },
        {
          "internalType": "address",
          "name": "customerAddress",
          "type": "address"
        },
        {
          "internalType": "address",
          "name": "sellerAddress",
          "type": "address"
        },
        {
          "internalType": "string",
          "name": "dnaSampleTrackingId",
          "type": "string"
        },
        {
          "internalType": "uint256",
          "name": "testingPrice",
          "type": "uint256"
        },
        {
          "internalType": "uint256",
          "name": "qcPrice",
          "type": "uint256"
        },
        {
          "internalType": "uint256",
          "name": "payAmount",
          "type": "uint256"
        }
      ],
      "name": "payOrder",
      "outputs": [],
      "stateMutability": "nonpayable",
      "type": "function"
    },
    {
      "inputs": [
        {
          "internalType": "bytes32",
          "name": "orderId",
          "type": "bytes32"
        }
      ],
      "name": "refundOrder",
      "outputs": [],
      "stateMutability": "nonpayable",
      "type": "function"
    },
    {
      "inputs": [
        {
          "internalType": "bytes32",
          "name": "orderId",
          "type": "bytes32"
        },
        {
          "internalType": "uint256",
          "name": "payAmount",
          "type": "uint256"
        }
      ],
      "name": "topUpOrderPayment",
      "outputs": [],
      "stateMutability": "nonpayable",
      "type": "function"
    }
  ],
  "bytecode": "0x60806040523480156200001157600080fd5b5060405162003634380380620036348339818101604052810190620000379190620000d7565b816000806101000a81548173ffffffffffffffffffffffffffffffffffffffff021916908373ffffffffffffffffffffffffffffffffffffffff16021790555080600160006101000a81548173ffffffffffffffffffffffffffffffffffffffff021916908373ffffffffffffffffffffffffffffffffffffffff160217905550505062000166565b600081519050620000d1816200014c565b92915050565b60008060408385031215620000eb57600080fd5b6000620000fb85828601620000c0565b92505060206200010e85828601620000c0565b9150509250929050565b600062000125826200012c565b9050919050565b600073ffffffffffffffffffffffffffffffffffffffff82169050919050565b620001578162000118565b81146200016357600080fd5b50565b6134be80620001766000396000f3fe608060405234801561001057600080fd5b50600436106100ea5760003560e01c80637bea0d1c1161008c5780639d44ef9b116100665780639d44ef9b14610268578063ad54b7da14610298578063eb130aec146102c8578063ecd0c0c3146102e4576100ea565b80637bea0d1c146102105780637dc0a8c51461022e5780638d0a5fbb1461024a576100ea565b80633e20cc6f116100c85780633e20cc6f146101625780634e3c776d146101925780635f2e7235146101c25780636f373670146101f2576100ea565b8063116a1d9a146100ef57806326e5dc5d1461010b57806333778f3314610127575b600080fd5b610109600480360381019061010491906122ba565b610302565b005b610125600480360381019061012091906122ba565b6106b3565b005b610141600480360381019061013c91906122ba565b610953565b6040516101599c9b9a99989796959493929190612b3f565b60405180910390f35b61017c60048036038101906101779190612406565b610ba5565b6040516101899190612b24565b60405180910390f35b6101ac60048036038101906101a791906122ba565b610bd6565b6040516101b99190612d49565b60405180910390f35b6101dc60048036038101906101d79190612442565b610f3a565b6040516101e99190612b02565b60405180910390f35b6101fa610fd1565b6040516102079190612a87565b60405180910390f35b610218610ff7565b6040516102259190612b02565b60405180910390f35b61024860048036038101906102439190612406565b61104f565b005b610252611955565b60405161025f9190612d8d565b60405180910390f35b610282600480360381019061027d9190612406565b61195f565b60405161028f9190612b24565b60405180910390f35b6102b260048036038101906102ad9190612442565b611990565b6040516102bf9190612b02565b60405180910390f35b6102e260048036038101906102dd91906122e3565b611a27565b005b6102ec612041565b6040516102f99190612c0e565b60405180910390f35b600160009054906101000a900473ffffffffffffffffffffffffffffffffffffffff1673ffffffffffffffffffffffffffffffffffffffff163373ffffffffffffffffffffffffffffffffffffffff1614610392576040517f08c379a000000000000000000000000000000000000000000000000000000000815260040161038990612d09565b60405180910390fd5b60008054906101000a900473ffffffffffffffffffffffffffffffffffffffff1673ffffffffffffffffffffffffffffffffffffffff1663a9059cbb6004600084815260200190815260200160002060090160009054906101000a900473ffffffffffffffffffffffffffffffffffffffff1660046000858152602001908152602001600020600601546040518363ffffffff1660e01b8152600401610439929190612ad9565b602060405180830381600087803b15801561045357600080fd5b505af1158015610467573d6000803e3d6000fd5b505050506040513d601f19601f8201168201806040525081019061048b9190612291565b6104ca576040517f08c379a00000000000000000000000000000000000000000000000000000000081526004016104c190612c29565b60405180910390fd5b60008054906101000a900473ffffffffffffffffffffffffffffffffffffffff1673ffffffffffffffffffffffffffffffffffffffff1663a9059cbb6004600084815260200190815260200160002060080160009054906101000a900473ffffffffffffffffffffffffffffffffffffffff1660046000858152602001908152602001600020600501546040518363ffffffff1660e01b8152600401610571929190612ad9565b602060405180830381600087803b15801561058b57600080fd5b505af115801561059f573d6000803e3d6000fd5b505050506040513d601f19601f820116820180604052508101906105c39190612291565b610602576040517f08c379a00000000000000000000000000000000000000000000000000000000081526004016105f990612c49565b60405180910390fd5b60036004600083815260200190815260200160002060090160146101000a81548160ff02191690836003811115610662577f4e487b7100000000000000000000000000000000000000000000000000000000600052602160045260246000fd5b02179055507fff95546e17810b321dae2a365db573101634047fb320f012fc89a75cbd1dbd82600460008381526020019081526020016000206040516106a89190612d6b565b60405180910390a150565b600160009054906101000a900473ffffffffffffffffffffffffffffffffffffffff1673ffffffffffffffffffffffffffffffffffffffff163373ffffffffffffffffffffffffffffffffffffffff1614610743576040517f08c379a000000000000000000000000000000000000000000000000000000000815260040161073a90612d29565b60405180910390fd5b60006004600083815260200190815260200160002060060154600460008481526020019081526020016000206005015461077d9190612e84565b905060008054906101000a900473ffffffffffffffffffffffffffffffffffffffff1673ffffffffffffffffffffffffffffffffffffffff1663a9059cbb6004600085815260200190815260200160002060090160009054906101000a900473ffffffffffffffffffffffffffffffffffffffff16836040518363ffffffff1660e01b8152600401610810929190612ad9565b602060405180830381600087803b15801561082a57600080fd5b505af115801561083e573d6000803e3d6000fd5b505050506040513d601f19601f820116820180604052508101906108629190612291565b6108a1576040517f08c379a000000000000000000000000000000000000000000000000000000000815260040161089890612c89565b60405180910390fd5b60026004600084815260200190815260200160002060090160146101000a81548160ff02191690836003811115610901577f4e487b7100000000000000000000000000000000000000000000000000000000600052602160045260246000fd5b02179055507ff0d8314b8e27e41750748a14f4e5bc543265928787563aa328aec7e5f42ad116600460008481526020019081526020016000206040516109479190612d6b565b60405180910390a15050565b600460205280600052604060002060009150905080600001549080600101549080600201805461098290613039565b80601f01602080910402602001604051908101604052809291908181526020018280546109ae90613039565b80156109fb5780601f106109d0576101008083540402835291602001916109fb565b820191906000526020600020905b8154815290600101906020018083116109de57829003601f168201915b505050505090806003018054610a1090613039565b80601f0160208091040260200160405190810160405280929190818152602001828054610a3c90613039565b8015610a895780601f10610a5e57610100808354040283529160200191610a89565b820191906000526020600020905b815481529060010190602001808311610a6c57829003601f168201915b505050505090806004018054610a9e90613039565b80601f0160208091040260200160405190810160405280929190818152602001828054610aca90613039565b8015610b175780601f10610aec57610100808354040283529160200191610b17565b820191906000526020600020905b815481529060010190602001808311610afa57829003601f168201915b5050505050908060050154908060060154908060070154908060080160009054906101000a900473ffffffffffffffffffffffffffffffffffffffff16908060090160009054906101000a900473ffffffffffffffffffffffffffffffffffffffff16908060090160149054906101000a900460ff16908060090160159054906101000a900460ff1690508c565b60066020528160005260406000208181548110610bc157600080fd5b90600052602060002001600091509150505481565b610bde612065565b60046000838152602001908152602001600020604051806101800160405290816000820154815260200160018201548152602001600282018054610c2190613039565b80601f0160208091040260200160405190810160405280929190818152602001828054610c4d90613039565b8015610c9a5780601f10610c6f57610100808354040283529160200191610c9a565b820191906000526020600020905b815481529060010190602001808311610c7d57829003601f168201915b50505050508152602001600382018054610cb390613039565b80601f0160208091040260200160405190810160405280929190818152602001828054610cdf90613039565b8015610d2c5780601f10610d0157610100808354040283529160200191610d2c565b820191906000526020600020905b815481529060010190602001808311610d0f57829003601f168201915b50505050508152602001600482018054610d4590613039565b80601f0160208091040260200160405190810160405280929190818152602001828054610d7190613039565b8015610dbe5780601f10610d9357610100808354040283529160200191610dbe565b820191906000526020600020905b815481529060010190602001808311610da157829003601f168201915b505050505081526020016005820154815260200160068201548152602001600782015481526020016008820160009054906101000a900473ffffffffffffffffffffffffffffffffffffffff1673ffffffffffffffffffffffffffffffffffffffff1673ffffffffffffffffffffffffffffffffffffffff1681526020016009820160009054906101000a900473ffffffffffffffffffffffffffffffffffffffff1673ffffffffffffffffffffffffffffffffffffffff1673ffffffffffffffffffffffffffffffffffffffff1681526020016009820160149054906101000a900460ff166003811115610edc577f4e487b7100000000000000000000000000000000000000000000000000000000600052602160045260246000fd5b6003811115610f14577f4e487b7100000000000000000000000000000000000000000000000000000000600052602160045260246000fd5b81526020016009820160159054906101000a900460ff1615151515815250509050919050565b6060600082604051602001610f4f9190612a70565b60405160208183030381529060405280519060200120905060056000828152602001908152602001600020805480602002602001604051908101604052809291908181526020018280548015610fc457602002820191906000526020600020905b815481526020019060010190808311610fb0575b5050505050915050919050565b600160009054906101000a900473ffffffffffffffffffffffffffffffffffffffff1681565b6060600380548060200260200160405190810160405280929190818152602001828054801561104557602002820191906000526020600020905b815481526020019060010190808311611031575b5050505050905090565b600115156004600084815260200190815260200160002060090160159054906101000a900460ff161515146110b9576040517f08c379a00000000000000000000000000000000000000000000000000000000081526004016110b090612c69565b60405180910390fd5b60008054906101000a900473ffffffffffffffffffffffffffffffffffffffff1673ffffffffffffffffffffffffffffffffffffffff166323b872dd3330846040518463ffffffff1660e01b815260040161111693929190612aa2565b602060405180830381600087803b15801561113057600080fd5b505af1158015611144573d6000803e3d6000fd5b505050506040513d601f19601f820116820180604052508101906111689190612291565b6111a7576040517f08c379a000000000000000000000000000000000000000000000000000000000815260040161119e90612cc9565b60405180910390fd5b6000600460008481526020019081526020016000206040518061018001604052908160008201548152602001600182015481526020016002820180546111ec90613039565b80601f016020809104026020016040519081016040528092919081815260200182805461121890613039565b80156112655780601f1061123a57610100808354040283529160200191611265565b820191906000526020600020905b81548152906001019060200180831161124857829003601f168201915b5050505050815260200160038201805461127e90613039565b80601f01602080910402602001604051908101604052809291908181526020018280546112aa90613039565b80156112f75780601f106112cc576101008083540402835291602001916112f7565b820191906000526020600020905b8154815290600101906020018083116112da57829003601f168201915b5050505050815260200160048201805461131090613039565b80601f016020809104026020016040519081016040528092919081815260200182805461133c90613039565b80156113895780601f1061135e57610100808354040283529160200191611389565b820191906000526020600020905b81548152906001019060200180831161136c57829003601f168201915b505050505081526020016005820154815260200160068201548152602001600782015481526020016008820160009054906101000a900473ffffffffffffffffffffffffffffffffffffffff1673ffffffffffffffffffffffffffffffffffffffff1673ffffffffffffffffffffffffffffffffffffffff1681526020016009820160009054906101000a900473ffffffffffffffffffffffffffffffffffffffff1673ffffffffffffffffffffffffffffffffffffffff1673ffffffffffffffffffffffffffffffffffffffff1681526020016009820160149054906101000a900460ff1660038111156114a7577f4e487b7100000000000000000000000000000000000000000000000000000000600052602160045260246000fd5b60038111156114df577f4e487b7100000000000000000000000000000000000000000000000000000000600052602160045260246000fd5b81526020016009820160159054906101000a900460ff161515151581525050905060008160c001518260a001516115169190612e84565b90506000838360e0015161152a9190612e84565b90508181111561160c57600082826115429190612eda565b905060008111156115fc5760008054906101000a900473ffffffffffffffffffffffffffffffffffffffff1673ffffffffffffffffffffffffffffffffffffffff1663a9059cbb33836040518363ffffffff1660e01b81526004016115a8929190612ad9565b602060405180830381600087803b1580156115c257600080fd5b505af11580156115d6573d6000803e3d6000fd5b505050506040513d601f19601f820116820180604052508101906115fa9190612291565b505b80826116089190612eda565b9150505b808360e001818152505060008282101561162557600090505b8282141561163257600190505b808461014001906003811115611671577f4e487b7100000000000000000000000000000000000000000000000000000000600052602160045260246000fd5b908160038111156116ab577f4e487b7100000000000000000000000000000000000000000000000000000000600052602160045260246000fd5b815250508360046000888152602001908152602001600020600082015181600001556020820151816001015560408201518160020190805190602001906116f3929190612132565b506060820151816003019080519060200190611710929190612132565b50608082015181600401908051906020019061172d929190612132565b5060a0820151816005015560c0820151816006015560e082015181600701556101008201518160080160006101000a81548173ffffffffffffffffffffffffffffffffffffffff021916908373ffffffffffffffffffffffffffffffffffffffff1602179055506101208201518160090160006101000a81548173ffffffffffffffffffffffffffffffffffffffff021916908373ffffffffffffffffffffffffffffffffffffffff1602179055506101408201518160090160146101000a81548160ff0219169083600381111561182e577f4e487b7100000000000000000000000000000000000000000000000000000000600052602160045260246000fd5b02179055506101608201518160090160156101000a81548160ff02191690831515021790555090505060006003811115611891577f4e487b7100000000000000000000000000000000000000000000000000000000600052602160045260246000fd5b84610140015160038111156118cf577f4e487b7100000000000000000000000000000000000000000000000000000000600052602160045260246000fd5b1415611915577f79d1c33cb62132e004f58b89a7b050e05cc56992b4182f33d0c0a0fdaac3f84e846040516119049190612d49565b60405180910390a150505050611951565b7f9d75b44486ce9c179385c37ea742cbbc3c690f8e7141745f5437f0e33c4b3424846040516119449190612d49565b60405180910390a1505050505b5050565b6000600254905090565b6005602052816000526040600020818154811061197b57600080fd5b90600052602060002001600091509150505481565b60606000826040516020016119a59190612a70565b60405160208183030381529060405280519060200120905060066000828152602001908152602001600020805480602002602001604051908101604052809291908181526020018280548015611a1a57602002820191906000526020600020905b815481526020019060010190808311611a06575b5050505050915050919050565b6000831415611a6b576040517f08c379a0000000000000000000000000000000000000000000000000000000008152600401611a6290612ce9565b60405180910390fd5b6000821415611aaf576040517f08c379a0000000000000000000000000000000000000000000000000000000008152600401611aa690612ca9565b60405180910390fd5b60008054906101000a900473ffffffffffffffffffffffffffffffffffffffff1673ffffffffffffffffffffffffffffffffffffffff166323b872dd3330846040518463ffffffff1660e01b8152600401611b0c93929190612aa2565b602060405180830381600087803b158015611b2657600080fd5b505af1158015611b3a573d6000803e3d6000fd5b505050506040513d601f19601f82011682018060405250810190611b5e9190612291565b611b9d576040517f08c379a0000000000000000000000000000000000000000000000000000000008152600401611b9490612cc9565b60405180910390fd5b60008284611bab9190612e84565b9050600081831015611bbc57600090505b81831415611bc957600190505b60006040518061018001604052808e81526020018d81526020018c81526020018b81526020018881526020018781526020018681526020018581526020018a73ffffffffffffffffffffffffffffffffffffffff1681526020018973ffffffffffffffffffffffffffffffffffffffff168152602001836003811115611c78577f4e487b7100000000000000000000000000000000000000000000000000000000600052602160045260246000fd5b815260200160011515815250905060038d908060018154018082558091505060019003906000526020600020016000909190919091505580600460008f815260200190815260200160002060008201518160000155602082015181600101556040820151816002019080519060200190611cf3929190612132565b506060820151816003019080519060200190611d10929190612132565b506080820151816004019080519060200190611d2d929190612132565b5060a0820151816005015560c0820151816006015560e082015181600701556101008201518160080160006101000a81548173ffffffffffffffffffffffffffffffffffffffff021916908373ffffffffffffffffffffffffffffffffffffffff1602179055506101208201518160090160006101000a81548173ffffffffffffffffffffffffffffffffffffffff021916908373ffffffffffffffffffffffffffffffffffffffff1602179055506101408201518160090160146101000a81548160ff02191690836003811115611e2e577f4e487b7100000000000000000000000000000000000000000000000000000000600052602160045260246000fd5b02179055506101608201518160090160156101000a81548160ff02191690831515021790555090505060008b604051602001611e6a9190612a70565b604051602081830303815290604052805190602001209050600560008281526020019081526020016000208e908060018154018082558091505060019003906000526020600020016000909190919091505560008b604051602001611ecf9190612a70565b604051602081830303815290604052805190602001209050600660008281526020019081526020016000208f908060018154018082558091505060019003906000526020600020016000909190919091505560026000815480929190611f349061311e565b919050555060006003811115611f73577f4e487b7100000000000000000000000000000000000000000000000000000000600052602160045260246000fd5b8361014001516003811115611fb1577f4e487b7100000000000000000000000000000000000000000000000000000000600052602160045260246000fd5b1415611ff8577f79d1c33cb62132e004f58b89a7b050e05cc56992b4182f33d0c0a0fdaac3f84e83604051611fe69190612d49565b60405180910390a15050505050612035565b7f9d75b44486ce9c179385c37ea742cbbc3c690f8e7141745f5437f0e33c4b3424836040516120279190612d49565b60405180910390a150505050505b50505050505050505050565b60008054906101000a900473ffffffffffffffffffffffffffffffffffffffff1681565b6040518061018001604052806000801916815260200160008019168152602001606081526020016060815260200160608152602001600081526020016000815260200160008152602001600073ffffffffffffffffffffffffffffffffffffffff168152602001600073ffffffffffffffffffffffffffffffffffffffff16815260200160006003811115612123577f4e487b7100000000000000000000000000000000000000000000000000000000600052602160045260246000fd5b81526020016000151581525090565b82805461213e90613039565b90600052602060002090601f01602090048101928261216057600085556121a7565b82601f1061217957805160ff19168380011785556121a7565b828001600101855582156121a7579182015b828111156121a657825182559160200191906001019061218b565b5b5090506121b491906121b8565b5090565b5b808211156121d15760008160009055506001016121b9565b5090565b60006121e86121e384612dcd565b612da8565b90508281526020810184848401111561220057600080fd5b61220b848285612ff7565b509392505050565b6000813590506122228161342c565b92915050565b60008151905061223781613443565b92915050565b60008135905061224c8161345a565b92915050565b600082601f83011261226357600080fd5b81356122738482602086016121d5565b91505092915050565b60008135905061228b81613471565b92915050565b6000602082840312156122a357600080fd5b60006122b184828501612228565b91505092915050565b6000602082840312156122cc57600080fd5b60006122da8482850161223d565b91505092915050565b6000806000806000806000806000806101408b8d03121561230357600080fd5b60006123118d828e0161223d565b9a505060206123228d828e0161223d565b99505060408b013567ffffffffffffffff81111561233f57600080fd5b61234b8d828e01612252565b98505060608b013567ffffffffffffffff81111561236857600080fd5b6123748d828e01612252565b97505060806123858d828e01612213565b96505060a06123968d828e01612213565b95505060c08b013567ffffffffffffffff8111156123b357600080fd5b6123bf8d828e01612252565b94505060e06123d08d828e0161227c565b9350506101006123e28d828e0161227c565b9250506101206123f48d828e0161227c565b9150509295989b9194979a5092959850565b6000806040838503121561241957600080fd5b60006124278582860161223d565b92505060206124388582860161227c565b9150509250929050565b60006020828403121561245457600080fd5b600082013567ffffffffffffffff81111561246e57600080fd5b61247a84828501612252565b91505092915050565b600061248f8383612535565b60208301905092915050565b6124a481612f5c565b82525050565b6124b381612f5c565b82525050565b60006124c482612e23565b6124ce8185612e46565b93506124d983612dfe565b8060005b8381101561250a5781516124f18882612483565b97506124fc83612e39565b9250506001810190506124dd565b5085935050505092915050565b61252081612f6e565b82525050565b61252f81612f6e565b82525050565b61253e81612f7a565b82525050565b61254d81612f7a565b82525050565b61255c81612fc1565b82525050565b61256b81612fe5565b82525050565b61257a81612fe5565b82525050565b600061258b82612e2e565b6125958185612e57565b93506125a5818560208601613006565b6125ae81613223565b840191505092915050565b60006125c482612e2e565b6125ce8185612e68565b93506125de818560208601613006565b6125e781613223565b840191505092915050565b60006125fd82612e2e565b6126078185612e79565b9350612617818560208601613006565b80840191505092915050565b6000815461263081613039565b61263a8186612e57565b9450600182166000811461265557600181146126675761269a565b60ff198316865260208601935061269a565b61267085612e0e565b60005b8381101561269257815481890152600182019150602081019050612673565b808801955050505b50505092915050565b60006126b0601883612e68565b91506126bb8261325b565b602082019050919050565b60006126d3601983612e68565b91506126de82613284565b602082019050919050565b60006126f6600f83612e68565b9150612701826132ad565b602082019050919050565b6000612719601583612e68565b9150612724826132d6565b602082019050919050565b600061273c601483612e68565b9150612747826132ff565b602082019050919050565b600061275f601983612e68565b915061276a82613328565b602082019050919050565b6000612782601983612e68565b915061278d82613351565b602082019050919050565b60006127a5602683612e68565b91506127b08261337a565b604082019050919050565b60006127c8603183612e68565b91506127d3826133c9565b604082019050919050565b6000610180830160008301516127f76000860182612535565b50602083015161280a6020860182612535565b50604083015184820360408601526128228282612580565b9150506060830151848203606086015261283c8282612580565b915050608083015184820360808601526128568282612580565b91505060a083015161286b60a0860182612a52565b5060c083015161287e60c0860182612a52565b5060e083015161289160e0860182612a52565b506101008301516128a661010086018261249b565b506101208301516128bb61012086018261249b565b506101408301516128d0610140860182612562565b506101608301516128e5610160860182612517565b508091505092915050565b60006101808301600080840154905061290881613085565b6129156000870182612535565b506001840154905061292681613085565b6129336020870182612535565b5060028401858303604087015261294a8382612623565b9250506003840185830360608701526129638382612623565b92505060048401858303608087015261297c8382612623565b9250506005840154905061298f8161309f565b61299c60a0870182612a52565b50600684015490506129ad8161309f565b6129ba60c0870182612a52565b50600784015490506129cb8161309f565b6129d860e0870182612a52565b50600884015490506129e98161306b565b6129f761010087018261249b565b5060098401549050612a088161306b565b612a1661012087018261249b565b50612a20816130b9565b612a2e610140870182612562565b50612a38816130d3565b612a46610160870182612517565b50819250505092915050565b612a5b81612fb7565b82525050565b612a6a81612fb7565b82525050565b6000612a7c82846125f2565b915081905092915050565b6000602082019050612a9c60008301846124aa565b92915050565b6000606082019050612ab760008301866124aa565b612ac460208301856124aa565b612ad16040830184612a61565b949350505050565b6000604082019050612aee60008301856124aa565b612afb6020830184612a61565b9392505050565b60006020820190508181036000830152612b1c81846124b9565b905092915050565b6000602082019050612b396000830184612544565b92915050565b600061018082019050612b55600083018f612544565b612b62602083018e612544565b8181036040830152612b74818d6125b9565b90508181036060830152612b88818c6125b9565b90508181036080830152612b9c818b6125b9565b9050612bab60a083018a612a61565b612bb860c0830189612a61565b612bc560e0830188612a61565b612bd36101008301876124aa565b612be16101208301866124aa565b612bef610140830185612571565b612bfd610160830184612526565b9d9c50505050505050505050505050565b6000602082019050612c236000830184612553565b92915050565b60006020820190508181036000830152612c42816126a3565b9050919050565b60006020820190508181036000830152612c62816126c6565b9050919050565b60006020820190508181036000830152612c82816126e9565b9050919050565b60006020820190508181036000830152612ca28161270c565b9050919050565b60006020820190508181036000830152612cc28161272f565b9050919050565b60006020820190508181036000830152612ce281612752565b9050919050565b60006020820190508181036000830152612d0281612775565b9050919050565b60006020820190508181036000830152612d2281612798565b9050919050565b60006020820190508181036000830152612d42816127bb565b9050919050565b60006020820190508181036000830152612d6381846127de565b905092915050565b60006020820190508181036000830152612d8581846128f0565b905092915050565b6000602082019050612da26000830184612a61565b92915050565b6000612db2612dc3565b9050612dbe82826130ed565b919050565b6000604051905090565b600067ffffffffffffffff821115612de857612de76131f4565b5b612df182613223565b9050602081019050919050565b6000819050602082019050919050565b60008190508160005260206000209050919050565b600081519050919050565b600081519050919050565b6000602082019050919050565b600082825260208201905092915050565b600082825260208201905092915050565b600082825260208201905092915050565b600081905092915050565b6000612e8f82612fb7565b9150612e9a83612fb7565b9250827fffffffffffffffffffffffffffffffffffffffffffffffffffffffffffffffff03821115612ecf57612ece613167565b5b828201905092915050565b6000612ee582612fb7565b9150612ef083612fb7565b925082821015612f0357612f02613167565b5b828203905092915050565b600073ffffffffffffffffffffffffffffffffffffffff82169050919050565b600060ff82169050919050565b6000819050919050565b600060ff82169050919050565b6000819050919050565b6000612f6782612f97565b9050919050565b60008115159050919050565b6000819050919050565b6000819050612f9282613418565b919050565b600073ffffffffffffffffffffffffffffffffffffffff82169050919050565b6000819050919050565b6000612fcc82612fd3565b9050919050565b6000612fde82612f97565b9050919050565b6000612ff082612f84565b9050919050565b82818337600083830152505050565b60005b83811015613024578082015181840152602081019050613009565b83811115613033576000848401525b50505050565b6000600282049050600182168061305157607f821691505b60208210811415613065576130646131c5565b5b50919050565b600061307e61307983613234565b612f0e565b9050919050565b600061309861309383613234565b612f3b565b9050919050565b60006130b26130ad83613234565b612f52565b9050919050565b60006130cc6130c783613241565b612f45565b9050919050565b60006130e66130e18361324e565b612f2e565b9050919050565b6130f682613223565b810181811067ffffffffffffffff82111715613115576131146131f4565b5b80604052505050565b600061312982612fb7565b91507fffffffffffffffffffffffffffffffffffffffffffffffffffffffffffffffff82141561315c5761315b613167565b5b600182019050919050565b7f4e487b7100000000000000000000000000000000000000000000000000000000600052601160045260246000fd5b7f4e487b7100000000000000000000000000000000000000000000000000000000600052602160045260246000fd5b7f4e487b7100000000000000000000000000000000000000000000000000000000600052602260045260246000fd5b7f4e487b7100000000000000000000000000000000000000000000000000000000600052604160045260246000fd5b6000601f19601f8301169050919050565b60008160001c9050919050565b60008160a01c9050919050565b60008160a81c9050919050565b7f5143205061796d656e7420746f206c6162206661696c65640000000000000000600082015250565b7f526566756e6420746f20637573746f6d6572206661696c656400000000000000600082015250565b7f4f72646572206e6f7420666f756e640000000000000000000000000000000000600082015250565b7f5061796d656e7420746f206c6162206661696c65640000000000000000000000600082015250565b7f51432050726963652063616e6e6f742062652030000000000000000000000000600082015250565b7f5472616e7366657220746f20657363726f77206661696c656400000000000000600082015250565b7f54657374696e672050726963652063616e6e6f74206265203000000000000000600082015250565b7f4f6e6c7920457363726f772041646d696e20616c6c6f77656420746f20646f2060008201527f726566756e640000000000000000000000000000000000000000000000000000602082015250565b7f4f6e6c7920457363726f772041646d696e20616c6c6f77656420746f20646f2060008201527f6f726465722066756c66696c6c6d656e74000000000000000000000000000000602082015250565b6004811061342957613428613196565b5b50565b61343581612f5c565b811461344057600080fd5b50565b61344c81612f6e565b811461345757600080fd5b50565b61346381612f7a565b811461346e57600080fd5b50565b61347a81612fb7565b811461348557600080fd5b5056fea26469706673582212204466d07b81dccf04c8e72f771c38cf8cca7d0b5fddbd936ccfbd5ac046c91a7964736f6c63430008040033",
  "linkReferences": {},
  "deployedLinkReferences": {}
}