{
  "_format": "hh-sol-artifact-1",
  "contractName": "ServiceRequest",
  "sourceName": "contracts/ServiceRequest.sol",
  "abi": [
    {
      "inputs": [
        {
          "internalType": "address",
          "name": "ERC20Address",
          "type": "address"
        },
        {
          "internalType": "address",
          "name": "daoGenics",
          "type": "address"
        },
        {
          "internalType": "address",
          "name": "escrowContract",
          "type": "address"
        },
        {
          "internalType": "address",
          "name": "escrowAdmin",
          "type": "address"
        }
      ],
      "stateMutability": "nonpayable",
      "type": "constructor"
    },
    {
      "anonymous": false,
      "inputs": [
        {
          "indexed": false,
          "internalType": "address",
          "name": "labAddress",
          "type": "address"
        },
        {
          "indexed": false,
          "internalType": "string",
          "name": "serviceCategory",
          "type": "string"
        },
        {
          "indexed": false,
          "internalType": "bytes32",
          "name": "serviceId",
          "type": "bytes32"
        }
      ],
      "name": "LabServiceValidated",
      "type": "event"
    },
    {
      "anonymous": false,
      "inputs": [
        {
          "indexed": false,
          "internalType": "address",
          "name": "labAddress",
          "type": "address"
        },
        {
          "indexed": false,
          "internalType": "bytes32",
          "name": "requestHash",
          "type": "bytes32"
        }
      ],
      "name": "RequestClaimed",
      "type": "event"
    },
    {
      "anonymous": false,
      "inputs": [
        {
          "indexed": false,
          "internalType": "bytes32",
          "name": "requestHash",
          "type": "bytes32"
        },
        {
          "indexed": false,
          "internalType": "bytes32",
          "name": "orderId",
          "type": "bytes32"
        },
        {
          "indexed": false,
          "internalType": "bytes32",
          "name": "serviceId",
          "type": "bytes32"
        },
        {
          "indexed": false,
          "internalType": "string",
          "name": "customerSubstrateAddress",
          "type": "string"
        },
        {
          "indexed": false,
          "internalType": "string",
          "name": "sellerSubstrateAddress",
          "type": "string"
        },
        {
          "indexed": false,
          "internalType": "address",
          "name": "customerAddress",
          "type": "address"
        },
        {
          "indexed": false,
          "internalType": "address",
          "name": "sellerAddress",
          "type": "address"
        },
        {
          "indexed": false,
          "internalType": "string",
          "name": "dnaSampleTrackingId",
          "type": "string"
        },
        {
          "indexed": false,
          "internalType": "uint256",
          "name": "testingPrice",
          "type": "uint256"
        },
        {
          "indexed": false,
          "internalType": "uint256",
          "name": "qcPrice",
          "type": "uint256"
        },
        {
          "indexed": false,
          "internalType": "uint256",
          "name": "payAmount",
          "type": "uint256"
        }
      ],
      "name": "RequestProcessed",
      "type": "event"
    },
    {
      "anonymous": false,
      "inputs": [
        {
          "components": [
            {
              "internalType": "address",
              "name": "requesterAddress",
              "type": "address"
            },
            {
              "internalType": "address",
              "name": "labAddress",
              "type": "address"
            },
            {
              "internalType": "string",
              "name": "country",
              "type": "string"
            },
            {
              "internalType": "string",
              "name": "city",
              "type": "string"
            },
            {
              "internalType": "string",
              "name": "serviceCategory",
              "type": "string"
            },
            {
              "internalType": "uint256",
              "name": "stakingAmount",
              "type": "uint256"
            },
            {
              "internalType": "enum ServiceRequest.RequestStatus",
              "name": "status",
              "type": "uint8"
            },
            {
              "internalType": "bytes32",
              "name": "hash",
              "type": "bytes32"
            },
            {
              "internalType": "bool",
              "name": "exists",
              "type": "bool"
            }
          ],
          "indexed": false,
          "internalType": "struct ServiceRequest.Request",
          "name": "request",
          "type": "tuple"
        }
      ],
      "name": "ServiceRequestCreated",
      "type": "event"
    },
    {
      "inputs": [],
      "name": "_daoGenics",
      "outputs": [
        {
          "internalType": "address",
          "name": "",
          "type": "address"
        }
      ],
      "stateMutability": "view",
      "type": "function"
    },
    {
      "inputs": [],
      "name": "_escrowAdmin",
      "outputs": [
        {
          "internalType": "address",
          "name": "",
          "type": "address"
        }
      ],
      "stateMutability": "view",
      "type": "function"
    },
    {
      "inputs": [],
      "name": "_escrowContract",
      "outputs": [
        {
          "internalType": "contract IEscrow",
          "name": "",
          "type": "address"
        }
      ],
      "stateMutability": "view",
      "type": "function"
    },
    {
      "inputs": [],
      "name": "_token",
      "outputs": [
        {
          "internalType": "contract IERC20",
          "name": "",
          "type": "address"
        }
      ],
      "stateMutability": "view",
      "type": "function"
    },
    {
      "inputs": [
        {
          "internalType": "bytes32",
          "name": "requestHash",
          "type": "bytes32"
        }
      ],
      "name": "claimRequest",
      "outputs": [],
      "stateMutability": "nonpayable",
      "type": "function"
    },
    {
      "inputs": [
        {
          "internalType": "string",
          "name": "country",
          "type": "string"
        },
        {
          "internalType": "string",
          "name": "city",
          "type": "string"
        },
        {
          "internalType": "string",
          "name": "serviceCategory",
          "type": "string"
        },
        {
          "internalType": "uint256",
          "name": "stakingAmount",
          "type": "uint256"
        }
      ],
      "name": "createRequest",
      "outputs": [],
      "stateMutability": "nonpayable",
      "type": "function"
    },
    {
      "inputs": [],
      "name": "getAllRequests",
      "outputs": [
        {
          "internalType": "bytes32[]",
          "name": "",
          "type": "bytes32[]"
        }
      ],
      "stateMutability": "view",
      "type": "function"
    },
    {
      "inputs": [
        {
          "internalType": "bytes32",
          "name": "hash",
          "type": "bytes32"
        }
      ],
      "name": "getRequestByHash",
      "outputs": [
        {
          "components": [
            {
              "internalType": "address",
              "name": "requesterAddress",
              "type": "address"
            },
            {
              "internalType": "address",
              "name": "labAddress",
              "type": "address"
            },
            {
              "internalType": "string",
              "name": "country",
              "type": "string"
            },
            {
              "internalType": "string",
              "name": "city",
              "type": "string"
            },
            {
              "internalType": "string",
              "name": "serviceCategory",
              "type": "string"
            },
            {
              "internalType": "uint256",
              "name": "stakingAmount",
              "type": "uint256"
            },
            {
              "internalType": "enum ServiceRequest.RequestStatus",
              "name": "status",
              "type": "uint8"
            },
            {
              "internalType": "bytes32",
              "name": "hash",
              "type": "bytes32"
            },
            {
              "internalType": "bool",
              "name": "exists",
              "type": "bool"
            }
          ],
          "internalType": "struct ServiceRequest.Request",
          "name": "",
          "type": "tuple"
        }
      ],
      "stateMutability": "view",
      "type": "function"
    },
    {
      "inputs": [],
      "name": "getRequestCount",
      "outputs": [
        {
          "internalType": "uint256",
          "name": "",
          "type": "uint256"
        }
      ],
      "stateMutability": "view",
      "type": "function"
    },
    {
      "inputs": [
        {
          "internalType": "string",
          "name": "country",
          "type": "string"
        }
      ],
      "name": "getRequestsByCountry",
      "outputs": [
        {
          "internalType": "bytes32[]",
          "name": "",
          "type": "bytes32[]"
        }
      ],
      "stateMutability": "view",
      "type": "function"
    },
    {
      "inputs": [
        {
          "internalType": "string",
          "name": "country",
          "type": "string"
        },
        {
          "internalType": "string",
          "name": "city",
          "type": "string"
        }
      ],
      "name": "getRequestsByCountryCity",
      "outputs": [
        {
          "internalType": "bytes32[]",
          "name": "",
          "type": "bytes32[]"
        }
      ],
      "stateMutability": "view",
      "type": "function"
    },
    {
      "inputs": [],
      "name": "getRequestsByLabAddress",
      "outputs": [
        {
          "internalType": "bytes32[]",
          "name": "",
          "type": "bytes32[]"
        }
      ],
      "stateMutability": "view",
      "type": "function"
    },
    {
      "inputs": [],
      "name": "getRequestsByRequesterAddress",
      "outputs": [
        {
          "internalType": "bytes32[]",
          "name": "",
          "type": "bytes32[]"
        }
      ],
      "stateMutability": "view",
      "type": "function"
    },
    {
      "inputs": [
        {
          "internalType": "bytes32",
          "name": "requestHash",
          "type": "bytes32"
        },
        {
          "internalType": "bytes32",
          "name": "orderId",
          "type": "bytes32"
        },
        {
          "internalType": "bytes32",
          "name": "serviceId",
          "type": "bytes32"
        },
        {
          "internalType": "string",
          "name": "customerSubstrateAddress",
          "type": "string"
        },
        {
          "internalType": "string",
          "name": "sellerSubstrateAddress",
          "type": "string"
        },
        {
          "internalType": "address",
          "name": "customerAddress",
          "type": "address"
        },
        {
          "internalType": "address",
          "name": "sellerAddress",
          "type": "address"
        },
        {
          "internalType": "string",
          "name": "dnaSampleTrackingId",
          "type": "string"
        },
        {
          "internalType": "uint256",
          "name": "testingPrice",
          "type": "uint256"
        },
        {
          "internalType": "uint256",
          "name": "qcPrice",
          "type": "uint256"
        }
      ],
      "name": "processRequest",
      "outputs": [],
      "stateMutability": "nonpayable",
      "type": "function"
    },
    {
      "inputs": [
        {
          "internalType": "bytes32",
          "name": "",
          "type": "bytes32"
        }
      ],
      "name": "requestByHash",
      "outputs": [
        {
          "internalType": "address",
          "name": "requesterAddress",
          "type": "address"
        },
        {
          "internalType": "address",
          "name": "labAddress",
          "type": "address"
        },
        {
          "internalType": "string",
          "name": "country",
          "type": "string"
        },
        {
          "internalType": "string",
          "name": "city",
          "type": "string"
        },
        {
          "internalType": "string",
          "name": "serviceCategory",
          "type": "string"
        },
        {
          "internalType": "uint256",
          "name": "stakingAmount",
          "type": "uint256"
        },
        {
          "internalType": "enum ServiceRequest.RequestStatus",
          "name": "status",
          "type": "uint8"
        },
        {
          "internalType": "bytes32",
          "name": "hash",
          "type": "bytes32"
        },
        {
          "internalType": "bool",
          "name": "exists",
          "type": "bool"
        }
      ],
      "stateMutability": "view",
      "type": "function"
    },
    {
      "inputs": [
        {
          "internalType": "bytes32",
          "name": "",
          "type": "bytes32"
        },
        {
          "internalType": "uint256",
          "name": "",
          "type": "uint256"
        }
      ],
      "name": "requestsByCountry",
      "outputs": [
        {
          "internalType": "bytes32",
          "name": "",
          "type": "bytes32"
        }
      ],
      "stateMutability": "view",
      "type": "function"
    },
    {
      "inputs": [
        {
          "internalType": "bytes32",
          "name": "",
          "type": "bytes32"
        },
        {
          "internalType": "uint256",
          "name": "",
          "type": "uint256"
        }
      ],
      "name": "requestsByCountryCity",
      "outputs": [
        {
          "internalType": "bytes32",
          "name": "",
          "type": "bytes32"
        }
      ],
      "stateMutability": "view",
      "type": "function"
    },
    {
      "inputs": [
        {
          "internalType": "address",
          "name": "",
          "type": "address"
        },
        {
          "internalType": "uint256",
          "name": "",
          "type": "uint256"
        }
      ],
      "name": "requestsByLabAddress",
      "outputs": [
        {
          "internalType": "bytes32",
          "name": "",
          "type": "bytes32"
        }
      ],
      "stateMutability": "view",
      "type": "function"
    },
    {
      "inputs": [
        {
          "internalType": "address",
          "name": "",
          "type": "address"
        },
        {
          "internalType": "uint256",
          "name": "",
          "type": "uint256"
        }
      ],
      "name": "requestsByRequesterAddress",
      "outputs": [
        {
          "internalType": "bytes32",
          "name": "",
          "type": "bytes32"
        }
      ],
      "stateMutability": "view",
      "type": "function"
    },
    {
      "inputs": [
        {
          "internalType": "address",
          "name": "",
          "type": "address"
        },
        {
          "internalType": "string",
          "name": "",
          "type": "string"
        }
      ],
      "name": "validLabServices",
      "outputs": [
        {
          "internalType": "bytes32",
          "name": "",
          "type": "bytes32"
        }
      ],
      "stateMutability": "view",
      "type": "function"
    },
    {
      "inputs": [
        {
          "internalType": "address",
          "name": "labId",
          "type": "address"
        },
        {
          "internalType": "string",
          "name": "serviceCategory",
          "type": "string"
        },
        {
          "internalType": "bytes32",
          "name": "serviceId",
          "type": "bytes32"
        }
      ],
      "name": "validateLabService",
      "outputs": [],
      "stateMutability": "nonpayable",
      "type": "function"
    }
  ],
  "bytecode": "0x60806040523480156200001157600080fd5b5060405162003b0038038062003b0083398181016040528101906200003791906200015b565b836000806101000a81548173ffffffffffffffffffffffffffffffffffffffff021916908373ffffffffffffffffffffffffffffffffffffffff16021790555082600160006101000a81548173ffffffffffffffffffffffffffffffffffffffff021916908373ffffffffffffffffffffffffffffffffffffffff16021790555081600260006101000a81548173ffffffffffffffffffffffffffffffffffffffff021916908373ffffffffffffffffffffffffffffffffffffffff16021790555080600360006101000a81548173ffffffffffffffffffffffffffffffffffffffff021916908373ffffffffffffffffffffffffffffffffffffffff1602179055505050505062000215565b6000815190506200015581620001fb565b92915050565b600080600080608085870312156200017257600080fd5b6000620001828782880162000144565b9450506020620001958782880162000144565b9350506040620001a88782880162000144565b9250506060620001bb8782880162000144565b91505092959194509250565b6000620001d482620001db565b9050919050565b600073ffffffffffffffffffffffffffffffffffffffff82169050919050565b6200020681620001c7565b81146200021257600080fd5b50565b6138db80620002256000396000f3fe608060405234801561001057600080fd5b50600436106101375760003560e01c80637a11eb0c116100b8578063b636072d1161007c578063b636072d14610376578063e10770b714610394578063ecd0c0c3146103cc578063f82f7bdd146103ea578063fb1a002a14610406578063fb77e2581461042457610137565b80637a11eb0c146102c05780637f65afce146102de5780638579455d1461030e5780638909f4831461033e5780638e71b9331461035a57610137565b80633fad1834116100ff5780633fad183414610208578063471ea6071461022657806349e3c0f4146102565780636a2a2b8f146102725780636f373670146102a257610137565b80630bfdff411461013c57806310d6ae831461016c5780631165af971461019c5780631a0ce238146101ba578063211415d0146101d8575b600080fd5b61015660048036038101906101519190612698565b610454565b6040516101639190612fe5565b60405180910390f35b610186600480360381019061018191906125dd565b610485565b6040516101939190612fe5565b60405180910390f35b6101a46104c0565b6040516101b19190612fc3565b60405180910390f35b6101c2610555565b6040516101cf9190612fc3565b60405180910390f35b6101f260048036038101906101ed91906128c6565b6105ea565b6040516101ff9190612fc3565b60405180910390f35b610210610684565b60405161021d91906132a9565b60405180910390f35b610240600480360381019061023b91906126fd565b61068e565b60405161024d9190613287565b60405180910390f35b610270600480360381019061026b9190612631565b6109d4565b005b61028c60048036038101906102879190612698565b610b04565b6040516102999190612fe5565b60405180910390f35b6102aa610b35565b6040516102b79190612e3f565b60405180910390f35b6102c8610b5b565b6040516102d59190612e3f565b60405180910390f35b6102f860048036038101906102f39190612885565b610b81565b6040516103059190612fc3565b60405180910390f35b61032860048036038101906103239190612849565b610c18565b6040516103359190612fe5565b60405180910390f35b610358600480360381019061035391906126fd565b610c49565b005b610374600480360381019061036f9190612726565b611242565b005b61037e611b3d565b60405161038b919061318c565b60405180910390f35b6103ae60048036038101906103a991906126fd565b611b63565b6040516103c399989796959493929190612e5a565b60405180910390f35b6103d4611da3565b6040516103e19190613171565b60405180910390f35b61040460048036038101906103ff9190612932565b611dc7565b005b61040e612301565b60405161041b9190612fc3565b60405180910390f35b61043e60048036038101906104399190612849565b612359565b60405161044b9190612fe5565b60405180910390f35b600a602052816000526040600020818154811061047057600080fd5b90600052602060002001600091509150505481565b600460205281600052604060002081805160208101820180518482526020830160208501208183528095505050505050600091509150505481565b6060600a60003373ffffffffffffffffffffffffffffffffffffffff1673ffffffffffffffffffffffffffffffffffffffff16815260200190815260200160002080548060200260200160405190810160405280929190818152602001828054801561054b57602002820191906000526020600020905b815481526020019060010190808311610537575b5050505050905090565b6060600b60003373ffffffffffffffffffffffffffffffffffffffff1673ffffffffffffffffffffffffffffffffffffffff1681526020019081526020016000208054806020026020016040519081016040528092919081815260200182805480156105e057602002820191906000526020600020905b8154815260200190600101908083116105cc575b5050505050905090565b606060008383604051602001610601929190612e1b565b6040516020818303038152906040528051906020012090506009600082815260200190815260200160002080548060200260200160405190810160405280929190818152602001828054801561067657602002820191906000526020600020905b815481526020019060010190808311610662575b505050505091505092915050565b6000600554905090565b6106966123c9565b60076000838152602001908152602001600020604051806101200160405290816000820160009054906101000a900473ffffffffffffffffffffffffffffffffffffffff1673ffffffffffffffffffffffffffffffffffffffff1673ffffffffffffffffffffffffffffffffffffffff1681526020016001820160009054906101000a900473ffffffffffffffffffffffffffffffffffffffff1673ffffffffffffffffffffffffffffffffffffffff1673ffffffffffffffffffffffffffffffffffffffff16815260200160028201805461077190613516565b80601f016020809104026020016040519081016040528092919081815260200182805461079d90613516565b80156107ea5780601f106107bf576101008083540402835291602001916107ea565b820191906000526020600020905b8154815290600101906020018083116107cd57829003601f168201915b5050505050815260200160038201805461080390613516565b80601f016020809104026020016040519081016040528092919081815260200182805461082f90613516565b801561087c5780601f106108515761010080835404028352916020019161087c565b820191906000526020600020905b81548152906001019060200180831161085f57829003601f168201915b5050505050815260200160048201805461089590613516565b80601f01602080910402602001604051908101604052809291908181526020018280546108c190613516565b801561090e5780601f106108e35761010080835404028352916020019161090e565b820191906000526020600020905b8154815290600101906020018083116108f157829003601f168201915b50505050508152602001600582015481526020016006820160009054906101000a900460ff16600281111561096c577f4e487b7100000000000000000000000000000000000000000000000000000000600052602160045260246000fd5b60028111156109a4577f4e487b7100000000000000000000000000000000000000000000000000000000600052602160045260246000fd5b8152602001600782015481526020016008820160009054906101000a900460ff1615151515815250509050919050565b600160009054906101000a900473ffffffffffffffffffffffffffffffffffffffff1673ffffffffffffffffffffffffffffffffffffffff163373ffffffffffffffffffffffffffffffffffffffff1614610a64576040517f08c379a0000000000000000000000000000000000000000000000000000000008152600401610a5b90613207565b60405180910390fd5b80600460008573ffffffffffffffffffffffffffffffffffffffff1673ffffffffffffffffffffffffffffffffffffffff16815260200190815260200160002083604051610ab29190612e04565b9081526020016040518091039020819055507f304214c5feef3759be64804327f6aa397c97909e1ba5478aa87677a8fda6d83b838383604051610af793929190612f5c565b60405180910390a1505050565b600b6020528160005260406000208181548110610b2057600080fd5b90600052602060002001600091509150505481565b600360009054906101000a900473ffffffffffffffffffffffffffffffffffffffff1681565b600160009054906101000a900473ffffffffffffffffffffffffffffffffffffffff1681565b6060600082604051602001610b969190612e04565b60405160208183030381529060405280519060200120905060086000828152602001908152602001600020805480602002602001604051908101604052809291908181526020018280548015610c0b57602002820191906000526020600020905b815481526020019060010190808311610bf7575b5050505050915050919050565b60086020528160005260406000208181548110610c3457600080fd5b90600052602060002001600091509150505481565b600115156007600083815260200190815260200160002060080160009054906101000a900460ff16151514610cb3576040517f08c379a0000000000000000000000000000000000000000000000000000000008152600401610caa90613227565b60405180910390fd5b600060076000838152602001908152602001600020604051806101200160405290816000820160009054906101000a900473ffffffffffffffffffffffffffffffffffffffff1673ffffffffffffffffffffffffffffffffffffffff1673ffffffffffffffffffffffffffffffffffffffff1681526020016001820160009054906101000a900473ffffffffffffffffffffffffffffffffffffffff1673ffffffffffffffffffffffffffffffffffffffff1673ffffffffffffffffffffffffffffffffffffffff168152602001600282018054610d9090613516565b80601f0160208091040260200160405190810160405280929190818152602001828054610dbc90613516565b8015610e095780601f10610dde57610100808354040283529160200191610e09565b820191906000526020600020905b815481529060010190602001808311610dec57829003601f168201915b50505050508152602001600382018054610e2290613516565b80601f0160208091040260200160405190810160405280929190818152602001828054610e4e90613516565b8015610e9b5780601f10610e7057610100808354040283529160200191610e9b565b820191906000526020600020905b815481529060010190602001808311610e7e57829003601f168201915b50505050508152602001600482018054610eb490613516565b80601f0160208091040260200160405190810160405280929190818152602001828054610ee090613516565b8015610f2d5780601f10610f0257610100808354040283529160200191610f2d565b820191906000526020600020905b815481529060010190602001808311610f1057829003601f168201915b50505050508152602001600582015481526020016006820160009054906101000a900460ff166002811115610f8b577f4e487b7100000000000000000000000000000000000000000000000000000000600052602160045260246000fd5b6002811115610fc3577f4e487b7100000000000000000000000000000000000000000000000000000000600052602160045260246000fd5b8152602001600782015481526020016008820160009054906101000a900460ff16151515158152505090506000801b600460003373ffffffffffffffffffffffffffffffffffffffff1673ffffffffffffffffffffffffffffffffffffffff16815260200190815260200160002082608001516040516110439190612e04565b9081526020016040518091039020541415611093576040517f08c379a000000000000000000000000000000000000000000000000000000000815260040161108a90613247565b60405180910390fd5b600160028111156110cd577f4e487b7100000000000000000000000000000000000000000000000000000000600052602160045260246000fd5b8160c00151600281111561110a577f4e487b7100000000000000000000000000000000000000000000000000000000600052602160045260246000fd5b141561114b576040517f08c379a0000000000000000000000000000000000000000000000000000000008152600401611142906131e7565b60405180910390fd5b60016007600084815260200190815260200160002060060160006101000a81548160ff021916908360028111156111ab577f4e487b7100000000000000000000000000000000000000000000000000000000600052602160045260246000fd5b0217905550336007600084815260200190815260200160002060010160006101000a81548173ffffffffffffffffffffffffffffffffffffffff021916908373ffffffffffffffffffffffffffffffffffffffff1602179055507f3f477586ea82303bd7075e6421eea2a2f05b071332d34e0dd842ea53a7a703993383604051611236929190612f33565b60405180910390a15050565b600360009054906101000a900473ffffffffffffffffffffffffffffffffffffffff1673ffffffffffffffffffffffffffffffffffffffff163373ffffffffffffffffffffffffffffffffffffffff16146112d2576040517f08c379a00000000000000000000000000000000000000000000000000000000081526004016112c990613267565b60405180910390fd5b60011515600760008c815260200190815260200160002060080160009054906101000a900460ff1615151461133c576040517f08c379a000000000000000000000000000000000000000000000000000000000815260040161133390613227565b60405180910390fd5b6000600760008c8152602001908152602001600020604051806101200160405290816000820160009054906101000a900473ffffffffffffffffffffffffffffffffffffffff1673ffffffffffffffffffffffffffffffffffffffff1673ffffffffffffffffffffffffffffffffffffffff1681526020016001820160009054906101000a900473ffffffffffffffffffffffffffffffffffffffff1673ffffffffffffffffffffffffffffffffffffffff1673ffffffffffffffffffffffffffffffffffffffff16815260200160028201805461141990613516565b80601f016020809104026020016040519081016040528092919081815260200182805461144590613516565b80156114925780601f1061146757610100808354040283529160200191611492565b820191906000526020600020905b81548152906001019060200180831161147557829003601f168201915b505050505081526020016003820180546114ab90613516565b80601f01602080910402602001604051908101604052809291908181526020018280546114d790613516565b80156115245780601f106114f957610100808354040283529160200191611524565b820191906000526020600020905b81548152906001019060200180831161150757829003601f168201915b5050505050815260200160048201805461153d90613516565b80601f016020809104026020016040519081016040528092919081815260200182805461156990613516565b80156115b65780601f1061158b576101008083540402835291602001916115b6565b820191906000526020600020905b81548152906001019060200180831161159957829003601f168201915b50505050508152602001600582015481526020016006820160009054906101000a900460ff166002811115611614577f4e487b7100000000000000000000000000000000000000000000000000000000600052602160045260246000fd5b600281111561164c577f4e487b7100000000000000000000000000000000000000000000000000000000600052602160045260246000fd5b8152602001600782015481526020016008820160009054906101000a900460ff161515151581525050905060008160a0015190506000838561168e919061338b565b90508082111561177057600081836116a691906133e1565b905060008111156117605760008054906101000a900473ffffffffffffffffffffffffffffffffffffffff1673ffffffffffffffffffffffffffffffffffffffff1663a9059cbb8a836040518363ffffffff1660e01b815260040161170c929190612f9a565b602060405180830381600087803b15801561172657600080fd5b505af115801561173a573d6000803e3d6000fd5b505050506040513d601f19601f8201168201806040525081019061175e91906126d4565b505b808361176c91906133e1565b9250505b60008054906101000a900473ffffffffffffffffffffffffffffffffffffffff1673ffffffffffffffffffffffffffffffffffffffff1663095ea7b3600260009054906101000a900473ffffffffffffffffffffffffffffffffffffffff16846040518363ffffffff1660e01b81526004016117ed929190612f9a565b602060405180830381600087803b15801561180757600080fd5b505af115801561181b573d6000803e3d6000fd5b505050506040513d601f19601f8201168201806040525081019061183f91906126d4565b50600260009054906101000a900473ffffffffffffffffffffffffffffffffffffffff1673ffffffffffffffffffffffffffffffffffffffff1663eb130aec8d8d8d8d8d8d8d8d8d8c6040518b63ffffffff1660e01b81526004016118ad9a999897969594939291906130c0565b600060405180830381600087803b1580156118c757600080fd5b505af11580156118db573d6000803e3d6000fd5b5050505060028360c00190600281111561191e577f4e487b7100000000000000000000000000000000000000000000000000000000600052602160045260246000fd5b90816002811115611958577f4e487b7100000000000000000000000000000000000000000000000000000000600052602160045260246000fd5b8152505082600760008f815260200190815260200160002060008201518160000160006101000a81548173ffffffffffffffffffffffffffffffffffffffff021916908373ffffffffffffffffffffffffffffffffffffffff16021790555060208201518160010160006101000a81548173ffffffffffffffffffffffffffffffffffffffff021916908373ffffffffffffffffffffffffffffffffffffffff1602179055506040820151816002019080519060200190611a1a92919061247e565b506060820151816003019080519060200190611a3792919061247e565b506080820151816004019080519060200190611a5492919061247e565b5060a0820151816005015560c08201518160060160006101000a81548160ff02191690836002811115611ab0577f4e487b7100000000000000000000000000000000000000000000000000000000600052602160045260246000fd5b021790555060e082015181600701556101008201518160080160006101000a81548160ff0219169083151502179055509050507f14e85c5d430dc01a60f91ce6bf522d93f419e63602f0d022735093983bd33fa38d8d8d8d8d8d8d8d8d8d8c604051611b269b9a99989796959493929190613000565b60405180910390a150505050505050505050505050565b600260009054906101000a900473ffffffffffffffffffffffffffffffffffffffff1681565b60076020528060005260406000206000915090508060000160009054906101000a900473ffffffffffffffffffffffffffffffffffffffff16908060010160009054906101000a900473ffffffffffffffffffffffffffffffffffffffff1690806002018054611bd290613516565b80601f0160208091040260200160405190810160405280929190818152602001828054611bfe90613516565b8015611c4b5780601f10611c2057610100808354040283529160200191611c4b565b820191906000526020600020905b815481529060010190602001808311611c2e57829003601f168201915b505050505090806003018054611c6090613516565b80601f0160208091040260200160405190810160405280929190818152602001828054611c8c90613516565b8015611cd95780601f10611cae57610100808354040283529160200191611cd9565b820191906000526020600020905b815481529060010190602001808311611cbc57829003601f168201915b505050505090806004018054611cee90613516565b80601f0160208091040260200160405190810160405280929190818152602001828054611d1a90613516565b8015611d675780601f10611d3c57610100808354040283529160200191611d67565b820191906000526020600020905b815481529060010190602001808311611d4a57829003601f168201915b5050505050908060050154908060060160009054906101000a900460ff16908060070154908060080160009054906101000a900460ff16905089565b60008054906101000a900473ffffffffffffffffffffffffffffffffffffffff1681565b6000811415611e0b576040517f08c379a0000000000000000000000000000000000000000000000000000000008152600401611e02906131a7565b60405180910390fd5b60008054906101000a900473ffffffffffffffffffffffffffffffffffffffff1673ffffffffffffffffffffffffffffffffffffffff166323b872dd3330846040518463ffffffff1660e01b8152600401611e6893929190612efc565b602060405180830381600087803b158015611e8257600080fd5b505af1158015611e96573d6000803e3d6000fd5b505050506040513d601f19601f82011682018060405250810190611eba91906126d4565b611ef9576040517f08c379a0000000000000000000000000000000000000000000000000000000008152600401611ef0906131c7565b60405180910390fd5b6000611f1733868686866001600554611f12919061338b565b61238a565b905060006040518061012001604052803373ffffffffffffffffffffffffffffffffffffffff168152602001600073ffffffffffffffffffffffffffffffffffffffff16815260200187815260200186815260200185815260200184815260200160006002811115611fb2577f4e487b7100000000000000000000000000000000000000000000000000000000600052602160045260246000fd5b81526020018381526020016001151581525090506006829080600181540180825580915050600190039060005260206000200160009091909190915055806007600084815260200190815260200160002060008201518160000160006101000a81548173ffffffffffffffffffffffffffffffffffffffff021916908373ffffffffffffffffffffffffffffffffffffffff16021790555060208201518160010160006101000a81548173ffffffffffffffffffffffffffffffffffffffff021916908373ffffffffffffffffffffffffffffffffffffffff16021790555060408201518160020190805190602001906120ad92919061247e565b5060608201518160030190805190602001906120ca92919061247e565b5060808201518160040190805190602001906120e792919061247e565b5060a0820151816005015560c08201518160060160006101000a81548160ff02191690836002811115612143577f4e487b7100000000000000000000000000000000000000000000000000000000600052602160045260246000fd5b021790555060e082015181600701556101008201518160080160006101000a81548160ff0219169083151502179055509050506000866040516020016121899190612e04565b60405160208183030381529060405280519060200120905060086000828152602001908152602001600020839080600181540180825580915050600190039060005260206000200160009091909190915055600087876040516020016121f0929190612e1b565b60405160208183030381529060405280519060200120905060096000828152602001908152602001600020849080600181540180825580915050600190039060005260206000200160009091909190915055600a60003373ffffffffffffffffffffffffffffffffffffffff1673ffffffffffffffffffffffffffffffffffffffff168152602001908152602001600020849080600181540180825580915050600190039060005260206000200160009091909190915055600560008154809291906122bb90613579565b91905055507f45d567111821d88d3405a745884d5cb18edb20ebea4daff6a32e493ba53ce770836040516122ef9190613287565b60405180910390a15050505050505050565b6060600680548060200260200160405190810160405280929190818152602001828054801561234f57602002820191906000526020600020905b81548152602001906001019080831161233b575b5050505050905090565b6009602052816000526040600020818154811061237557600080fd5b90600052602060002001600091509150505481565b60008686868686866040516020016123a796959493929190612da0565b6040516020818303038152906040528051906020012090509695505050505050565b604051806101200160405280600073ffffffffffffffffffffffffffffffffffffffff168152602001600073ffffffffffffffffffffffffffffffffffffffff1681526020016060815260200160608152602001606081526020016000815260200160006002811115612465577f4e487b7100000000000000000000000000000000000000000000000000000000600052602160045260246000fd5b8152602001600080191681526020016000151581525090565b82805461248a90613516565b90600052602060002090601f0160209004810192826124ac57600085556124f3565b82601f106124c557805160ff19168380011785556124f3565b828001600101855582156124f3579182015b828111156124f25782518255916020019190600101906124d7565b5b5090506125009190612504565b5090565b5b8082111561251d576000816000905550600101612505565b5090565b600061253461252f846132e9565b6132c4565b90508281526020810184848401111561254c57600080fd5b6125578482856134d4565b509392505050565b60008135905061256e81613849565b92915050565b60008151905061258381613860565b92915050565b60008135905061259881613877565b92915050565b600082601f8301126125af57600080fd5b81356125bf848260208601612521565b91505092915050565b6000813590506125d78161388e565b92915050565b600080604083850312156125f057600080fd5b60006125fe8582860161255f565b925050602083013567ffffffffffffffff81111561261b57600080fd5b6126278582860161259e565b9150509250929050565b60008060006060848603121561264657600080fd5b60006126548682870161255f565b935050602084013567ffffffffffffffff81111561267157600080fd5b61267d8682870161259e565b925050604061268e86828701612589565b9150509250925092565b600080604083850312156126ab57600080fd5b60006126b98582860161255f565b92505060206126ca858286016125c8565b9150509250929050565b6000602082840312156126e657600080fd5b60006126f484828501612574565b91505092915050565b60006020828403121561270f57600080fd5b600061271d84828501612589565b91505092915050565b6000806000806000806000806000806101408b8d03121561274657600080fd5b60006127548d828e01612589565b9a505060206127658d828e01612589565b99505060406127768d828e01612589565b98505060608b013567ffffffffffffffff81111561279357600080fd5b61279f8d828e0161259e565b97505060808b013567ffffffffffffffff8111156127bc57600080fd5b6127c88d828e0161259e565b96505060a06127d98d828e0161255f565b95505060c06127ea8d828e0161255f565b94505060e08b013567ffffffffffffffff81111561280757600080fd5b6128138d828e0161259e565b9350506101006128258d828e016125c8565b9250506101206128378d828e016125c8565b9150509295989b9194979a5092959850565b6000806040838503121561285c57600080fd5b600061286a85828601612589565b925050602061287b858286016125c8565b9150509250929050565b60006020828403121561289757600080fd5b600082013567ffffffffffffffff8111156128b157600080fd5b6128bd8482850161259e565b91505092915050565b600080604083850312156128d957600080fd5b600083013567ffffffffffffffff8111156128f357600080fd5b6128ff8582860161259e565b925050602083013567ffffffffffffffff81111561291c57600080fd5b6129288582860161259e565b9150509250929050565b6000806000806080858703121561294857600080fd5b600085013567ffffffffffffffff81111561296257600080fd5b61296e8782880161259e565b945050602085013567ffffffffffffffff81111561298b57600080fd5b6129978782880161259e565b935050604085013567ffffffffffffffff8111156129b457600080fd5b6129c08782880161259e565b92505060606129d1878288016125c8565b91505092959194509250565b60006129e98383612aa6565b60208301905092915050565b6129fe81613415565b82525050565b612a0d81613415565b82525050565b612a24612a1f82613415565b6135c2565b82525050565b6000612a358261332a565b612a3f818561334d565b9350612a4a8361331a565b8060005b83811015612a7b578151612a6288826129dd565b9750612a6d83613340565b925050600181019050612a4e565b5085935050505092915050565b612a9181613427565b82525050565b612aa081613427565b82525050565b612aaf81613433565b82525050565b612abe81613433565b82525050565b612acd8161347a565b82525050565b612adc8161349e565b82525050565b612aeb816134c2565b82525050565b612afa816134c2565b82525050565b6000612b0b82613335565b612b15818561335e565b9350612b258185602086016134e3565b612b2e816136ac565b840191505092915050565b6000612b4482613335565b612b4e818561336f565b9350612b5e8185602086016134e3565b612b67816136ac565b840191505092915050565b6000612b7d82613335565b612b878185613380565b9350612b978185602086016134e3565b80840191505092915050565b6000612bb0601a8361336f565b9150612bbb826136ca565b602082019050919050565b6000612bd360148361336f565b9150612bde826136f3565b602082019050919050565b6000612bf660208361336f565b9150612c018261371c565b602082019050919050565b6000612c1960168361336f565b9150612c2482613745565b602082019050919050565b6000612c3c60168361336f565b9150612c478261376e565b602082019050919050565b6000612c5f60318361336f565b9150612c6a82613797565b604082019050919050565b6000612c8260328361336f565b9150612c8d826137e6565b604082019050919050565b600061012083016000830151612cb160008601826129f5565b506020830151612cc460208601826129f5565b5060408301518482036040860152612cdc8282612b00565b91505060608301518482036060860152612cf68282612b00565b91505060808301518482036080860152612d108282612b00565b91505060a0830151612d2560a0860182612d6b565b5060c0830151612d3860c0860182612ae2565b5060e0830151612d4b60e0860182612aa6565b50610100830151612d60610100860182612a88565b508091505092915050565b612d7481613470565b82525050565b612d8381613470565b82525050565b612d9a612d9582613470565b6135e6565b82525050565b6000612dac8289612a13565b601482019150612dbc8288612b72565b9150612dc88287612b72565b9150612dd48286612b72565b9150612de08285612d89565b602082019150612df08284612d89565b602082019150819050979650505050505050565b6000612e108284612b72565b915081905092915050565b6000612e278285612b72565b9150612e338284612b72565b91508190509392505050565b6000602082019050612e546000830184612a04565b92915050565b600061012082019050612e70600083018c612a04565b612e7d602083018b612a04565b8181036040830152612e8f818a612b39565b90508181036060830152612ea38189612b39565b90508181036080830152612eb78188612b39565b9050612ec660a0830187612d7a565b612ed360c0830186612af1565b612ee060e0830185612ab5565b612eee610100830184612a97565b9a9950505050505050505050565b6000606082019050612f116000830186612a04565b612f1e6020830185612a04565b612f2b6040830184612d7a565b949350505050565b6000604082019050612f486000830185612a04565b612f556020830184612ab5565b9392505050565b6000606082019050612f716000830186612a04565b8181036020830152612f838185612b39565b9050612f926040830184612ab5565b949350505050565b6000604082019050612faf6000830185612a04565b612fbc6020830184612d7a565b9392505050565b60006020820190508181036000830152612fdd8184612a2a565b905092915050565b6000602082019050612ffa6000830184612ab5565b92915050565b600061016082019050613016600083018e612ab5565b613023602083018d612ab5565b613030604083018c612ab5565b8181036060830152613042818b612b39565b90508181036080830152613056818a612b39565b905061306560a0830189612a04565b61307260c0830188612a04565b81810360e08301526130848187612b39565b9050613094610100830186612d7a565b6130a2610120830185612d7a565b6130b0610140830184612d7a565b9c9b505050505050505050505050565b6000610140820190506130d6600083018d612ab5565b6130e3602083018c612ab5565b81810360408301526130f5818b612b39565b90508181036060830152613109818a612b39565b90506131186080830189612a04565b61312560a0830188612a04565b81810360c08301526131378187612b39565b905061314660e0830186612d7a565b613154610100830185612d7a565b613162610120830184612d7a565b9b9a5050505050505050505050565b60006020820190506131866000830184612ac4565b92915050565b60006020820190506131a16000830184612ad3565b92915050565b600060208201905081810360008301526131c081612ba3565b9050919050565b600060208201905081810360008301526131e081612bc6565b9050919050565b6000602082019050818103600083015261320081612be9565b9050919050565b6000602082019050818103600083015261322081612c0c565b9050919050565b6000602082019050818103600083015261324081612c2f565b9050919050565b6000602082019050818103600083015261326081612c52565b9050919050565b6000602082019050818103600083015261328081612c75565b9050919050565b600060208201905081810360008301526132a18184612c98565b905092915050565b60006020820190506132be6000830184612d7a565b92915050565b60006132ce6132df565b90506132da8282613548565b919050565b6000604051905090565b600067ffffffffffffffff8211156133045761330361367d565b5b61330d826136ac565b9050602081019050919050565b6000819050602082019050919050565b600081519050919050565b600081519050919050565b6000602082019050919050565b600082825260208201905092915050565b600082825260208201905092915050565b600082825260208201905092915050565b600081905092915050565b600061339682613470565b91506133a183613470565b9250827fffffffffffffffffffffffffffffffffffffffffffffffffffffffffffffffff038211156133d6576133d56135f0565b5b828201905092915050565b60006133ec82613470565b91506133f783613470565b92508282101561340a576134096135f0565b5b828203905092915050565b600061342082613450565b9050919050565b60008115159050919050565b6000819050919050565b600081905061344b82613835565b919050565b600073ffffffffffffffffffffffffffffffffffffffff82169050919050565b6000819050919050565b60006134858261348c565b9050919050565b600061349782613450565b9050919050565b60006134a9826134b0565b9050919050565b60006134bb82613450565b9050919050565b60006134cd8261343d565b9050919050565b82818337600083830152505050565b60005b838110156135015780820151818401526020810190506134e6565b83811115613510576000848401525b50505050565b6000600282049050600182168061352e57607f821691505b602082108114156135425761354161364e565b5b50919050565b613551826136ac565b810181811067ffffffffffffffff821117156135705761356f61367d565b5b80604052505050565b600061358482613470565b91507fffffffffffffffffffffffffffffffffffffffffffffffffffffffffffffffff8214156135b7576135b66135f0565b5b600182019050919050565b60006135cd826135d4565b9050919050565b60006135df826136bd565b9050919050565b6000819050919050565b7f4e487b7100000000000000000000000000000000000000000000000000000000600052601160045260246000fd5b7f4e487b7100000000000000000000000000000000000000000000000000000000600052602160045260246000fd5b7f4e487b7100000000000000000000000000000000000000000000000000000000600052602260045260246000fd5b7f4e487b7100000000000000000000000000000000000000000000000000000000600052604160045260246000fd5b6000601f19601f8301169050919050565b60008160601b9050919050565b7f5374616b696e6720616d6f756e742063616e6e6f742062652030000000000000600082015250565b7f546f6b656e207374616b696e67206661696c6564000000000000000000000000600082015250565b7f526571756573742068617320616c7265616479206265656e20636c61696d6564600082015250565b7f4f6e6c792044414f47656e69637320616c6c6f77656400000000000000000000600082015250565b7f5265717565737420646f6573206e6f7420657869737400000000000000000000600082015250565b7f4c61622773207365727669636520686173206e6f74206265656e2076616c696460008201527f617465642062792044414f47656e696373000000000000000000000000000000602082015250565b7f4f6e6c7920657363726f772061646d696e20697320617574686f72697a65642060008201527f746f2070726f6365737320726571756573740000000000000000000000000000602082015250565b600381106138465761384561361f565b5b50565b61385281613415565b811461385d57600080fd5b50565b61386981613427565b811461387457600080fd5b50565b61388081613433565b811461388b57600080fd5b50565b61389781613470565b81146138a257600080fd5b5056fea2646970667358221220493d5831f4748d56889c2e754d4b5fb93d2b170ee0b71bb7249ba473bb9f7d6264736f6c63430008040033",
  "linkReferences": {},
  "deployedLinkReferences": {}
}